S01400004D6F62696C654B65797061642E737265635A
S11300000C945E000C947B000C947B000C947B009D
S11300100C947B000C947B000C947B000C947B0070
S11300200C947B000C947B000C9470020C947B0069
S11300300C947B000C947B000C947B000C947B0050
S11300400C947B000C947B000C947B000C947B0040
S11300500C947B002D0131011B011D011F012101A5
S113006023012501270129012F012F012F012F0130
S11300702F012F012F012F012F012F012F012F01FC
S11300802F012F012F012F012F012F012F012F01EC
S11300902F012F012F012F012F012F012F012F01DC
S11300A02F012F012F012F012F012F012F012F01CC
S11300B02F012F012F012F012F012B0111241FBE0E
S11300C0CFE5D8E0DEBFCDBF10E0A0E6B0E0E4E6C7
S11300D0F5E002C005900D92A036B107D9F720E0F3
S11300E0A0E6B0E001C01D92A436B207E1F70E9479
S11300F055020C94B0020C94000080EF84BB8FEF87
S113010085BB0895AC98AD9AAE9AAF9A989B44C0BB
S1130110999B44C09A9B44C09B9B44C08FE19EE43E
S11301200197F1F700C00000AC9AAD98AE9AAF9A6F
S1130130989B3AC0999B3AC09A9B3AC09B9B3AC001
S11301408FE19EE40197F1F700C00000AC9AAD9AEC
S1130150AE98AF9A989B30C0999B30C09A9B30C0A0
S11301609B9B30C08FE19EE40197F1F700C0000033
S1130170AC9AAD9AAE9AAF98989B26C0999B26C02C
S11301809A9B26C09B9B26C08FE19EE40197F1F7C2
S113019000C000008FEF089587E3089588E3089571
S11301A089E308958FE2089584E3089585E308952B
S11301B086E308958AE2089581E3089582E3089529
S11301C083E308958DE2089583E6089580E3089516
S11301D08DE308958BE20895CF93109260001092FE
S11301E0610010926200109263000E9482008F3FAF
S11301F069F48091600090916100A0916200B091D7
S11302006300853F9140A105B10578F30E94820007
S1130210C82F0E9482008F3FE1F78C2FCC0F990BDF
S1130220AA0BBB0BFC01F097E433F105C0F4E65DC7
S1130230FF4F0C94AA0284E615C087E613C08AE631
S113024011C08DE60FC080E70DC083E70BC086E7C1
S113025009C089E707C083E405C080E203C080E0E9
S113026001C081E6CF910895FF920F931F93CF931E
S1130270DF930E94EC00D82F811105C00E94EC008E
S1130280D82F8823D9F3D33409F441C0D03209F4E8
S113029040C08D2F0E940F02FD2E10E001E00D0FD3
S11302A0109260001092610010926200109263003C
S11302B00E94EC00C82F8D1313C080E10E949201AC
S11302C0111106C0F02E802F0E940F0211E0E8CF1A
S11302D01130C1F4C2E0CD0F8C2F0E940F021BC05D
S11302E0882319F00E940F0216C08091600090913B
S11302F06100A0916200B0916300843F9140A10528
S1130300B105B0F21F5F123058F28F2D05C083E49F
S113031003C080E201C08C2FDF91CF911F910F9118
S1130320FF900895DA98882314F4DF9A01C0DF98C7
S113033086FF02C0DE9A01C0DE9885FF02C0DD9A06
S113034001C0DD9884FF02C0DC9A01C0DC98DB9A0E
S1130350EFE9FFE03197F1F700C00000DB98EFE927
S1130360FFE03197F1F700C0000083FF02C0DF9A7D
S113037001C0DF9882FF02C0DE9A01C0DE9881FFCF
S113038002C0DD9A01C0DD9880FF02C0DC9A01C082
S1130390DC98DB9A8FE99FE00197F1F700C0000039
S11303A0DB98EFE9FFE03197F1F700C00000089512
S11303B08AB38D6F8ABB83E00E9492018FE79EE32C
S11303C00197F1F700C0000083E00E9492018FE7DB
S11303D09EE30197F1F700C0000083E00E949201C0
S11303E08FE79EE30197F1F700C0000082E00E94CE
S11303F0920188E20E94920181E00E94920186E0CB
S11304000E9492018CE00E9492019FEF29EF80E00C
S1130410915020408040E1F700C000000895DA9A2E
S1130420882314F4DF9A01C0DF9886FF02C0DE9AA5
S113043001C0DE9885FF02C0DD9A01C0DD9884FF0B
S113044002C0DC9A01C0DC98DB9AEFE9FFE0319747
S1130450F1F700C00000DB98EFE9FFE03197F1F716
S113046000C0000083FF02C0DF9A01C0DF9882FF52
S113047002C0DE9A01C0DE9881FF02C0DD9A01C08D
S1130480DD9880FF02C0DC9A01C0DC98DB9A8FE91A
S11304909FE00197F1F700C00000DB98EFE9FFE06F
S11304A03197F1F700C0000008950E94D8010E941E
S11304B07D000E9495020E949B020E9434018334B5
S11304C051F480E10E94920180E20E940F0280E1D7
S11304D00E949201F2CF803281F70E940F02EDCF89
S11304E01F920F920FB60F9211248F939F93AF9385
S11304F0BF938091600090916100A0916200B091DF
S113050063000196A11DB11D80936000909361006A
S1130510A0936200B0936300BF91AF919F918F91BC
S11305200F900FBE0F901F90189583B78B6883BFF1
S11305308AEF8CBF089589B7826089BF8FB78068BE
S11305408FBF1092600010926100109262001092AE
S113055063000895EE0FFF1F0590F491E02D0994B8
S1070560F894FFCF39
S9030000FC
